:100000000C940A070C9451070C9451070C94510757
:100010000C9451070C9451070C9451070C94510700
:100020000C9451070C9451070C94FD0E0C94CF0FB7
:100030000C94011E0C9451070C9451070C94510719
:100040000C9451070C9451070C9451070C945107D0
:100050000C9451070C94751E0C9451070C94510785
:100060000C9451070C9451070C9451070C945107B0
:100070000C9451070C9451070C9451070C945107A0
:100080000C9451070C9451070C9451070C94510790
:100090000C9451070C9451070C9451070C94510780
:1000A0000C9451070C9451070C9451070D08120839
:1000B00017081C08210826082B083008BA08BD08B4
:1000C000C008C308C608C908CC08CF08D2083C102D
:1000D0005E1051115E105111A310C61051111B1169
:1000E0002E11711471149F149F14FC1436153317BC
:1000F00033174F15331744164416071733173317A2
:100100001E170000000000000000000000000000BA
:100110000000F1A1F1A2F1A3F1A4F1A5F1A6F1A7CC
:10012000028A048A088A218A228A248A288A00C0AC
:1001300001C002C003C004C005C006C007C03A3BEE
:10014000291E1F2021223C3D2B141A0815173E3F63
:10015000C0041607090A4041E11D1B061905424368
:10016000E0E3E22CE2E323242526272D2E2A1C1887
:100170000C12132F30310B0D0E0F333428001110D9
:10018000363738E152007650514F494B4C4EAAA9B0
:1001900035010101010101010101520101010101CA
:1001A0000150514F01010101010101010101010152
:1001B000010101010101010101010101010101012F
:1001C0000101010101010101010101010100010120
:1001D0000101010101000101010101010101010110
:1001E00001010101010101010101010101010101FF
:1001F00001010101010101010101010101010101EF
:1002000001010101010101010101010101010101DE
:1002100001010101010101010101010101000101CF
:1002200001010101010001010101010101010101BF
:1002300001010101010101010101010101010101AE
:10024000010101010101010101010101010101019E
:10025000010101010101010101010101010101018E
:10026000010101010101010101010101010001017F
:10027000010101010100010101010101010101016F
:10028000010101010101010101010101010101015E
:10029000010101010101010101010101010101014E
:1002A000010101010101010101010101010101013E
:1002B000010101010101010101010101010001012F
:1002C000010101010100010101010101010101011F
:1002D000010101010101010101010101010101010E
:1002E00001010101010101010101010101010101FE
:1002F00001010101010101010101010101010101EE
:1003000001010101010101010101010101000101DE
:1003100001010101010001010101010101010101CE
:1003200001010101010101010101010101010101BD
:1003300001010101010101010101010101010101AD
:10034000010101010101010101010101010101019D
:10035000010101010101010101010101010001018E
:10036000010101010100010101010101010101017E
:10037000010101010101010101010101010101016D
:10038000010101010101010101010101010101015D
:10039000010101010101010101010101010101014D
:1003A000010101010101010101010101010001013E
:1003B00001010101010001010101010101010A0026
:1003C0002530313662003A200025303258000A725A
:1003D0002F63203031323334353637383941424398
:1003E0004445460A000A002530325800626F756E97
:1003F0006365213A20005B735D004B6579626F6134
:1004000072642073746172742E0A00555342206323
:100410006F6E666967757265642E0A005B575D00D2
:100420005B535D005B525D005B445D005B435D00C0
:10043000200343007500730074006F006D002000FE
:100440004B006500790062006F006100720064007B
:100450000000080374006D006B0000000403090431
:1004600009028D00050100A032090400000103010A
:100470000100092111010001224000070581030844
:10048000000A090401000103010200092111010011
:1004900001224D000705820308000A090402000139
:1004A0000300000009211101000122360007058325
:1004B0000308000A090403000203000000092111D7
:1004C0000100012222000705840320000107050422
:1004D00003200001090404000103000000092111A8
:1004E00001000122390007058503100001120110E7
:1004F0000100000008EDFE6060010001020001053E
:10050000010906A101050719E029E7150025019554
:1005100008750181020508190129059505750191E4
:10052000029501750391010507190029771500252A
:1005300001957875018102C00631FF0974A1010996
:1005400075150026FF0095207508810209761500B3
:1005500026FF00952075089102C005010980A101C0
:10056000850216010026B7001A01002AB70075108F
:1005700095018100C0050C0901A101850316010048
:10058000269C021A01002A9C02751095018100C068
:1005900005010902A1010901A100050919012905A7
:1005A00015002501950575018102950175038101ED
:1005B0000501093009311581257F950275088106ED
:1005C00009381581257F950175088106050C0A38C3
:1005D000021581257F950175088106C0C0050109B6
:1005E00006A101050719E029E71500250195087501
:1005F00001810295017508810105081901290595F8
:1006000005750191029501750391010507190029EE
:10061000FF150026FF00950675088100C00A002519
:1006200030325820006B6579626F6172645F726569
:10063000706F72743A20004C45443A20253032588D
:100640000A0064656C5F6B65795F6269743A206368
:10065000616E27742064656C3A20253032580A0098
:100660006164645F6B65795F6269743A2063616E8F
:100670002774206164643A20253032580A00646F80
:100680006E652E0A00626F6F746D61676963207317
:1006900063616E3A202E2E2E2000290A0025750057
:1006A0002F002575005D28002564002000256400CA
:1006B000200025640020002564007C00253032588D
:1006C000006D6F7573656B6579205B62746E7C7805
:1006D0002079207620685D287265702F61636C290F
:1006E0003A205B006D6B5F776865656C5F74696D60
:1006F000655F746F5F6D6178203D2025640A006D31
:100700006B5F776865656C5F6D61785F7370656559
:1007100064203D2025640A006D6B5F74696D655F20
:10072000746F5F6D6178203D2025640A006D6B5FFA
:100730006D61785F7370656564203D2025640A00F3
:100740006D6B5F696E74657276616C203D20256407
:100750000A006D6B5F64656C6179203D2025640A39
:10076000006D6B5F776865656C5F74696D655F745C
:100770006F5F6D6178203D2025640A006D6B5F77A7
:100780006865656C5F6D61785F7370656564203D59
:100790002025640A006D6B5F74696D655F746F5F1F
:1007A0006D6178203D2025640A006D6B5F6D617876
:1007B0005F7370656564203D2025640A006D6B5F82
:1007C000696E74657276616C203D2025640A006D47
:1007D0006B5F64656C6179203D2025640A000A0026
:1007E000257500363A20776865656C5F74696D65BC
:1007F0005F746F5F6D61783A20000A0025750035DF
:100800003A20776865656C5F6D61785F73706565C8
:10081000643A20000A00257500343A2074696D6539
:100820005F746F5F6D61783A20000A0025750033B0
:100830003A206D61785F73706565643A20000A0044
:10084000257500323A20696E74657276616C286D88
:1008500073293A20000A00257500313A2064656C3E
:100860006179282A31306D73293A20000A092D2038
:1008700056616C756573202D0A004D3E004D256450
:100880003E20003F007365742064656661756C747A
:100890000A00433E200077686572652064656C74C9
:1008A000613A20637572736F723D25642C207768FE
:1008B00065656C3D25640A53656520687474703AFB
:1008C0002F2F656E2E77696B6970656469612E6F75
:1008D00072672F77696B692F4D6F7573655F6B65F5
:1008E00079730A000A092D204D6F7573656B657960
:1008F000202D0A4553432F713A09717569740A31E5
:100900003A0964656C6179282A31306D73290A329D
:100910003A09696E74657276616C286D73290A33C1
:100920003A096D61785F73706565640A343A0974D9
:10093000696D655F746F5F6D61780A353A09776834
:1009400065656C5F6D61785F73706565640A363AE2
:1009500009776865656C5F74696D655F746F5F6D5D
:1009600061780A0A703A097072696E742076616C57
:100970007565730A643A0973657420646566617508
:100980006C74730A75703A092B310A646F776E3A8A
:10099000092D310A706775703A092B31300A70677A
:1009A000646F776E3A092D31300A0A737065656499
:1009B000203D2064656C7461202A206D61785F732E
:1009C00070656564202A2028726570656174202F27
:1009D0002074696D655F746F5F6D6178290A003FEF
:1009E000004D3E2000433E20004C25640A000A09C9
:1009F0002D20436F6E736F6C65202D0A4553432F76
:100A0000713A09717569740A6D3A096D6F7573658C
:100A10006B65790A000A092D204D61676963202DF5
:100A20000A643A0964656275670A783A096465621E
:100A30007567206D61747269780A6B3A0964656242
:100A40007567206B6579626F6172640A6D3A09643B
:100A500065627567206D6F7573650A763A0976650C
:100A60007273696F6E0A733A097374617475730AED
:100A7000633A09636F6E736F6C65206D6F64650A0E
:100A8000302D343A096C61796572302D3428463145
:100A9000302D4634290A506175733A09626F6F74BC
:100AA0006C6F616465720A653A09656570726F6D95
:100AB0000A6E3A094E4B524F0A000A002575002E65
:100AC0006E6B726F3A20000A002575002E737761F5
:100AD000705F6261636B736C6173685F6261636BAB
:100AE00073706163653A20000A002575002E7377E4
:100AF00061705F67726176655F6573633A20000AB3
:100B0000002575002E6E6F5F6775693A20000A0038
:100B10002575002E737761705F72616C745F726708
:100B200075693A20000A002575002E737761705FA1
:100B30006C616C745F6C6775693A20000A002575FA
:100B4000002E636170736C6F636B5F746F5F636FB4
:100B50006E74726F6C3A20000A002575002E737750
:100B600061705F636F6E74726F6C5F636170736CE2
:100B70006F636B3A20000A0025303258006B6579AC
:100B80006D61705F636F6E6669672E7261773A2080
:100B9000000A002575002E6D6F7573653A20000AF6
:100BA000002575002E6B6579626F6172643A2000D2
:100BB0000A002575002E6D61747269783A20000A6A
:100BC000002575002E656E61626C653A20000A0092
:100BD000253032580064656275675F636F6E6669C1
:100BE000672E7261773A20000A00257500646566F9
:100BF00061756C745F6C617965723A20003F004EDC
:100C00004B524F3A206F66660A004E4B524F3A20C5
:100C10006F6E0A0074696D65725F7265616433326C
:100C200028293A202530346C580A006B6579626FA8
:100C30006172645F6E6B726F3A2025580A006B65B3
:100C400079626F6172645F69646C653A2025580A45
:100C5000006B6579626F6172645F70726F746F634D
:100C60006F6C3A2025580A00686F73745F6B657962
:100C7000626F6172645F6C65647328293A2025583D
:100C80000A000A092D20537461747573202D0A001F
:100C90004743433A20352E332E30204156522D4CB7
:100CA0004942433A20322E302E30204156525F4185
:100CB0005243483A20617672350A004F5054494FEA
:100CC0004E533A204C55464120424F4F544D4147D8
:100CD0004943204D4F5553454B4559204558545293
:100CE000414B455920434F4E534F4C4520434F4DA8
:100CF0004D414E44204E4B524F20343039360A007D
:100D00004255494C443A20756E6B6E6F776E2028C1
:100D100031373A35393A3031204A756C203231203A
:100D200032303136290A005649443A203078464557
:100D3000454428746D6B29205049443A2030783658
:100D400030363028437573746F6D204B6579626F50
:100D500061726429205645523A2030783030303163
:100D60000A00444553433A20437573746F6D204B1A
:100D70006579626F6172640A000A092D20566572F6
:100D800073696F6E202D0A000A6D6F7573653A20C6
:100D90006F66660A000A6D6F7573653A206F6E0A9A
:100DA000000A6B6579626F6172643A206F66660A49
:100DB000000A6B6579626F6172643A206F6E0A0097
:100DC0000A6D61747269783A206F66660A000A6D6E
:100DD00061747269783A206F6E0A000A6465627500
:100DE000673A206F6E0A000A64656275673A206F81
:100DF00066660A000A0A626F6F746C6F61646572DE
:100E00002E2E2E2000433E20006565636F6E6669BE
:100E1000673A0A0011241FBECFEFDAE0DEBFCDBF74
:100E200004B603FE27C08091E6019091E701A091EE
:100E3000E801B091E9018730904BA740B04BD1F465
:100E40001092E6011092E7011092E8011092E90178
:100E500014BE84B7877F84BF0FB6F894A89580919D
:100E60006000886180936000109260000FBEE0E037
:100E7000F8E3099511E0A0E0B1E0EAE7F6E502C089
:100E800005900D92A833B107D9F721E0A8E3B1E0AE
:100E900001C01D92A63EB207E1F70E94320C0C94ED
:100EA0003B2B0C940000FF93EF93E0913801F091FD
:100EB0003901309709F00995EF91FF910895FC01F0
:100EC0008591803011F0EFDFFBCF0895FF27E0E23E
:100ED00030E247FF0CC0419597FF09C0EDE26095F5
:100EE000709580959095611D711D811D911D27FF45
:100EF00002C0219530E350E2AA27660F771F881FB2
:100F0000991FAA1FA41710F0A41B63955A95A9F75F
:100F1000AA3008F0A95FA05DAF93F3956115710544
:100F20008105910541F7ED3211F4EF93F395F21736
:100F300018F43F93F395FBCF8F91B5DFFA95E1F766
:100F40000895E991F9918591803021F0853219F069
:100F5000AADFF9CF089520E0E89455915532C1F306
:100F6000503311F4689455915A3348F4505390F328
:100F7000220F022E220F220F200D250FF4CF0EF488
:100F8000219589919991533619F3533729F15335A6
:100F900059F1BC0188279927E8945C3621F489919E
:100FA000999168945591543639F446EF7EF077FF65
:100FB0000DC08FEF9FEF0AC055374AE039F0583522
:100FC00040E121F0523642E009F00895FF93EF939B
:100FD0007DDFEF91FF91B7CFFF93EF93FC018191FC
:100FE0008030B9F360DFFBCFFF93EF9368DFF1CF81
:100FF000DF93CF93CDB7DEB72596A3DFCF91DF91F7
:101000000895FC018281462F50E04830510568F573
:10101000FA01EA5AFF4F0C94F02A811129C080E1AD
:1010200091E00895811127C08EE091E0089581112B
:1010300025C08CE091E00895811123C08AE091E001
:101040000895811121C088E091E0089581111FC0A9
:1010500086E091E0089581111DC084E091E008953B
:1010600081111BC082E091E0089580E090E0089536
:1010700081E191E008958FE091E008958DE091E0A5
:1010800008958BE091E0089589E091E0089587E06C
:1010900091E0089585E091E0089583E091E008955E
:1010A000E72FF0E09AE0899FE00DF11D112483E025
:1010B000EE0FFF1F8A95E1F7E60FF11DE25CFE4F90
:1010C00084910895E82FF0E0EE0FFF1FEE56F040F8
:1010D00085919491089584B1807E84B985B1807E94
:1010E00085B980B38C7880BB81B38C7881BB08953F
:1010F00085B7806885BF85B7806885BF0E946B080B
:1011000087B18F7387B988B1806C88B98AB18370D1
:101110008AB98BB18C6F8BB9E4E4F1E0AAE3B1E05A
:1011200011921D9281E0EE34F807D1F70895BF9235
:10113000CF92DF92EF92FF920F931F93CF93DF93A3
:101140000AE311E0E801D12CCC24C39485E0B82E49
:1011500097EEE92E93E0F92E8D2D90E0FC0131976A
:10116000E930F10520F4E25AFF4F0C94F02A209A5E
:1011700028981AC0219A299817C0229A2A9814C030
:10118000239A2B9811C0249A2C980EC0809A889884
:101190000BC0819A899808C0849A8C9805C0859A5A
:1011A0008D9802C0869A8E9880EA8A95F1F786B16A
:1011B00086FB882780F9282F2C2596B19095892FBA
:1011C000881F8827881F880F822B4A9902C094E0C5
:1011D00001C090E0892B4B9902C098E001C090E0DB
:1011E000892B4C9902C030E101C030E0832B4D992E
:1011F00002C020E201C020E0822B4E9902C090E4A0
:1012000001C090E0892B4F9902C090E801C090E0A6
:10121000892B9881981739F1888380910001882360
:1012200001F18091C70180FF04C08CEE93E00E9421
:101230005F078091C70180FF0CC0809100011F9261
:101240008F93FF92EF920E94F8070F900F900F90EC
:101250000F908091C70180FF04C085EE93E00E944B
:101260005F07B09200010E946B08D39421969AE028
:10127000D91272CF809100018823B1F08150809300
:101280000001882339F0AFE9BFE01197F1F700C002
:1012900000000AC0E4E4F1E0D8018D918D01819352
:1012A000B1E004341B07C1F781E0DF91CF911F91BA
:1012B0000F91FF90EF90DF90CF90BF900895E82FAF
:1012C000F0E0EC5BFE4F80810895CF92DF92EF92C9
:1012D000FF920F931F93CF93DF938EEC93E00E94C6
:1012E0005F0784E4E82E81E0F82EC0E0D0E099ECBE
:1012F000C92E93E0D92E00EC13E0DF93CF93DF9259
:10130000CF920E94F80786EC93E00E945F07F701F6
:1013100081917F0190E00E94901D9F938F931F9376
:101320000F930E94F8078EEB93E00E945F072196CF
:101330008DB79EB708960FB6F8949EBF0FBE8DBFAF
:10134000CA30D105D1F6DF91CF911F910F91FF9057
:10135000EF90DF90CF9008950895809161010895F6
:101360009FB7F894109250019FBF9091DC01943088
:1013700009F057C09091E9009F703091EC00232F45
:10138000217030FD20E8922B24E02093E900209189
:10139000EB0020FF43C02091EE0027FF3FC02091CB
:1013A0004E01222321F02091E80025FF37C0109242
:1013B0004E0126E03091E80035FD15C03091DC018A
:1013C000343061F53091EB0035FD28C0215021F417
:1013D00081E080934E0122C0EFE9FFE03197F1F701
:1013E00000C00000E7CF8093F1008091E80085FD08
:1013F0000AC08091E80080FFFCCF8091E8008E77E2
:101400008093E80006C08FB7F89421E02093500144
:101410008FBF9F709093E90080E008959F70909334
:10142000E9008FEF0895CF93DF9300D01F92CDB7DF
:10143000DEB79C018091DC01843019F593E099833B
:101440003B832A839093E9008FEF9091E8008150CD
:1014500095FD06C095ED9A95F1F700008111F5CF45
:101460008091E80085FF0DC040E050E063E070E04F
:10147000CE0101960E94F10C8091E8008E77809356
:10148000E8000F900F900F90DF91CF910895CF93C8
:10149000DF9300D01F92CDB7DEB72091DC0124305E
:1014A00021F522E029839B838A8383E08093E900EE
:1014B0008FEF9091E800815095FD06C095ED9A95CB
:1014C000F1F700008111F5CF8091E80085FF0DC094
:1014D00040E050E063E070E0CE0101960E94F10C24
:1014E0008091E8008E778093E8000F900F900F9026
:1014F000DF91CF9108959C018091DC018430F9F453
:1015000082E08093E9009FEF8091E800915085FD93
:1015100006C085ED8A95F1F700009111F5CF809115
:10152000E80085FF0CC040E050E065E070E0C901D4
:101530000E94F10C8091E8008E778093E800089576
:10154000CF93DF93EC018091DC01843009F047C038
:1015500080910B018823E1F080910C018823C1F078
:1015600085E08093E9008FEF9091E800815095FD30
:1015700006C095E19A95F1F700008111F5CF8091B1
:10158000E80085FF2CC040E050E060E170E017C04B
:1015900081E08093E9008FEF9091E800815095FD04
:1015A00006C095ED9A95F1F700008111F5CF809175
:1015B000E80085FF14C040E050E068E070E0CE0134
:1015C0000E94F10C8091E8008E778093E80080E122
:1015D000FE01A1E5B1E001900D928A95E1F7DF915E
:1015E000CF9108958CE294E00E945F078091DB0127
:1015F000811109C00E94820E0E94DF0E8091E200DC
:1016000084608093E200089588E294E00E945F077E
:101610001092DB01089584E294E00C945F0720911E
:101620004F012F5F822F62E30E94D02A992319F085
:1016300020934F01089510924F018091500188230B
:1016400071F18091DC01843041F58091E9008F7067
:101650002091EC00922F917020FD90E8892B94E06E
:101660009093E9009091EB0090FF14C09091EE00F0
:1016700097FF10C09091E80095FF03C01092F10011
:10168000F9CF9091E80090FF05C09091E8009E7717
:101690009093E8008F708093E900109250010895B4
:1016A00042E061EC81E00E94FB0D42E061EC82E0EF
:1016B0000E94FB0D42E061EC83E00E94FB0D42E2E0
:1016C00061EC84E00E94FB0D42E161EC85E00C944A
:1016D000FB0D8091DE01833009F455C030F4813078
:1016E00071F0823009F48EC008958A3009F47AC00E
:1016F0008B3009F460C0893009F09CC020C0809113
:10170000DD01813A09F096C08091E800877F8093DF
:10171000E8008091E1019091E201892B21F460E1E0
:1017200081E591E003C060E080E090E070E00E941D
:101730003C0D8091E8008B778093E80008958091BC
:10174000DD01813209F076C08091E1019091E201E2
:10175000009719F0049709F06DC08091E800877F29
:101760008093E8008091E80082FD05C08091DC0153
:101770008111F8CF5FC08091F10080936101809169
:10178000E8008B7753C08091DD01813A09F052C0A7
:101790008091E1019091E201892B09F04BC0809189
:1017A000E800877F8093E8008091E80080FFFCCF0D
:1017B00080910B0136C08091DD018132D9F5809195
:1017C000E1019091E201892BA9F58091E800877FE2
:1017D0008093E8000E94300E8091DF0180930B011E
:1017E0000C9455178091DD01813221F58091E8003C
:1017F000877F8093E8000E94300E8091E001809303
:10180000620108958091DD01813AA1F48091E800A0
:10181000877F8093E8008091E80080FFFCCF809173
:1018200062018093F1008091E8008E778093E80058
:101830000C94300E089508950C941B0C0C941B0C02
:1018400080E294E00E945F070C941B0C0E94BF1D75
:101850008091DA01882329F00E94EB1D81110C94FC
:10186000DB0C089584B7877F84BF0FB6F894A895E2
:1018700080916000886180936000109260000FBECC
:1018800090E080E80FB6F894809361009093610037
:101890000FBE0E941E0C0E94FA110E94820E0E942E
:1018A000DF0E8091E20084608093E20080EB99E09B
:1018B0000E94791D78948091DC018430E1F78BE0FF
:1018C00094E00E945F070E94FC1181E091E00E9479
:1018D00069118AEF93E00E945F070E941C0C8091BF
:1018E000DC01853039F486EF93E00E945F070E94A7
:1018F000260CF5CF0E940212F2CF0C94FF1D8CE152
:1019000094E00E945F070C947D0C292F332723302D
:101910003105C9F060F42130310581F02230310504
:1019200009F041C08DE890E020E634E040C021326B
:101930003105E1F02232310531F135C082E190E02C
:101940002DEE34E034C099278130910549F028F01C
:10195000029749F5E0E3F4E005C0ECE5F4E002C0ED
:10196000E2E5F4E0849190E09F0121C06530D8F475
:10197000E62FF0E0EE0FFF1FEC5DFE4F208131817E
:1019800089E090E014C0653070F470E0FB01EE0F68
:10199000FF1FE65EFE4F20813181FB01EB5EFE4FB3
:1019A000808190E004C080E090E020E030E0FA0127
:1019B00031832083089580E189BD82E189BD09B426
:1019C00000FEFDCF8091D8008F7D8093D80080915C
:1019D000E00082608093E0008091E00081FDFCCF18
:1019E0000895CF92DF92EF92FF920F931F93CF93C0
:1019F000DF93EC018B016A010E944F0E811133C00D
:101A0000C114D10439F0F60180819181081B190BB2
:101A1000C80FD91FE12CF12C0115110519F1809186
:101A2000E80085FD16C08091E8008E778093E8007D
:101A3000C114D10449F0F60180819181E80EF91EAC
:101A4000F182E08285E00FC00E944F0E882321F3CF
:101A50000AC089918093F10001501109FFEFEF1A3C
:101A6000FF0ADACF80E0DF91CF911F910F91FF90B5
:101A7000EF90DF90CF9008952091E3013091E40141
:101A80002617370748F06115710539F42091E800F1
:101A90002E772093E80001C0B901FC0120E0611518
:101AA000710579F18091DC018823F1F18530F1F144
:101AB0008091E80083FD3CC08091E80082FD2EC04B
:101AC0008091E80080FFEBCF2091F3008091F2003D
:101AD00090E0922B6115710551F08830910538F432
:101AE00021912093F100615071090196F3CF21E01B
:101AF000089709F020E08091E8008E778093E80055
:101B0000CECF2111CFCF0AC08091DC01882361F0B4
:101B1000853061F08091E80083FD0AC08091E80083
:101B200082FFF2CF80E0089582E0089583E0089577
:101B300081E008952091E3013091E40126173707F1
:101B400048F06115710539F42091E8002E77209353
:101B5000E80001C0B901FC0120E06115710591F1B7
:101B60008091DC01882309F440C0853009F43FC02E
:101B70008091E80083FD3DC08091E80082FD2FC088
:101B80008091E80080FFE9CF2091F3008091F2007E
:101B900090E0922B6115710559F08830910540F461
:101BA00024912093F1003196615071090196F2CF92
:101BB00021E0089709F020E08091E8008E7780937B
:101BC000E800CBCF2111CCCF0AC08091DC01882363
:101BD00061F0853061F08091E80083FD0AC080915A
:101BE000E80082FFF2CF80E0089582E0089583E06C
:101BF000089581E00895982F973068F59093E90053
:101C0000981739F07091EC002091ED005091F000A0
:101C100003C0242F762F50E021FD02C09F5FECCF40
:101C20003091EB003E7F3093EB003091ED003D7F33
:101C30003093ED003091EB0031603093EB00709306
:101C4000EC002093ED005093F0002091EE0027FD72
:101C5000E5CF80E008958F708093E90081E00895DA
:101C60008091DD0187FF11C08091E80082FD05C0F1
:101C70008091DC018111F8CF11C08091E8008B7751
:101C80000BC08091DC01882349F08091E80080FF3F
:101C9000F8CF8091E8008E778093E8000895209136
:101CA000E4003091E50095E64091EC00842F8170CE
:101CB00040FF23C08091E80080FD1DC08091DC01C1
:101CC000882399F0853099F08091EB0085FD11C053
:101CD0004091E4005091E5002417350729F3915015
:101CE00011F09A01E1CF84E0089582E0089583E045
:101CF000089581E0089580E008954091E80042FF52
:101D0000DDCF08950E94F00E0E94F80EE0EEF0E0A4
:101D1000808181608083E8EDF0E080818F7780832F
:101D200019BCA7EDB0E08C918E7F8C9380818F7E63
:101D300080831092DB0108950F931F93CF93DF935D
:101D40000E94F00E0E94F80EC8EDD0E088818F77D7
:101D5000888388818068888388818F7D888319BC87
:101D60001092DC011092D8011092DA011092D90180
:101D700000EE10E0F80180818B7F80838881816094
:101D8000888342E060E080E00E94FB0DE1EEF0E03D
:101D900080818E7F8083E2EEF0E0808181608083AD
:101DA000808188608083F80180818E7F8083888134
:101DB00080618883DF91CF911F910F910895E8EDA5
:101DC000F0E080818F7E8083E7EDF0E080818160AC
:101DD000808384E082BF81E08093DB010C949C0EC1
:101DE000E8EDF0E080818E7F80831092E20008951C
:101DF0001092DA001092E10008951F920F920FB630
:101E00000F9211242F933F934F935F936F937F9380
:101E10008F939F93AF93BF93EF93FF938091E100D4
:101E200082FF0BC08091E20082FF07C08091E10039
:101E30008B7F8093E1000E940F0B8091DA0080FF7E
:101E40001FC08091D80080FF1BC08091DA008E7F78
:101E50008093DA008091D90080FF0DC080E189BDB8
:101E600082E189BD09B400FEFDCF81E08093DC01F1
:101E70000E94F20A05C019BC1092DC010E94040BFA
:101E80008091E10080FF19C08091E20080FF15C0C1
:101E90008091E2008E7F8093E2008091E200806179
:101EA0008093E2008091D80080628093D80019BCB2
:101EB00085E08093DC010E94200C8091E10084FF8A
:101EC00030C08091E20084FF2CC080E189BD82E1B6
:101ED00089BD09B400FEFDCF8091D8008F7D80932D
:101EE000D8008091E1008F7E8093E1008091E20034
:101EF0008F7E8093E2008091E20081608093E20017
:101F00008091D801882311F084E007C08091E3001C
:101F100087FD02C081E001C083E08093DC010E9464
:101F20007F0C8091E10083FF29C08091E20083FF54
:101F300025C08091E100877F8093E10082E080935B
:101F4000DC011092D8018091E1008E7F8093E10046
:101F50008091E2008E7F8093E2008091E2008061B8
:101F60008093E20042E060E080E00E94FB0D8091FF
:101F7000F00088608093F0000E940B0BFF91EF91BE
:101F8000BF91AF919F918F917F916F915F914F9191
:101F90003F912F910F900FBE0F901F9018951F9299
:101FA0000F920FB60F9211242F933F934F935F938D
:101FB0006F937F938F939F93AF93BF93CF93DF9351
:101FC000EF93FF93C091E900CF708091EC00D82F80
:101FD000D17080FDD0E81092E9008091F000877FF9
:101FE0008093F00078940E9413101092E900809181
:101FF000F00088608093F000CD2BCF70C093E90093
:10200000FF91EF91DF91CF91BF91AF919F918F9110
:102010007F916F915F914F913F912F910F900FBEE4
:102020000F901F9018951F93CF93DF93CDB7DEB716
:10203000AA970FB6F894DEBF0FBECDBFEDEDF1E06D
:102040008091F100819321E0E53EF207C9F70E94FB
:10205000690B8091E80083FF24C18091DD0190919C
:10206000DE01492F50E04A30510508F01AC1FA014B
:10207000E959FF4F0C94F02A803881F0823809F03A
:1020800010C18091E1018F708093E9008091EB0095
:1020900085FB882780F91092E90006C08091D9015C
:1020A0009091DA01911182609091E800977F90936E
:1020B000E8008093F1001092F100C8C0282F2D7F16
:1020C00009F0EFC0882319F0823061F0EAC08091F6
:1020D000DF01813009F0E5C0933009F080E08093A2
:1020E000DA012BC08091DF01811127C08091E101CD
:1020F0008F7009F4D6C08093E9002091EB0020FF97
:102100001CC0933021F48091EB00806214C0909148
:10211000EB0090619093EB0021E030E0A90102C058
:10212000440F551F8A95E2F74093EA001092EA00A7
:102130008091EB0088608093EB001092E900809121
:10214000E800877F86C08111ACC01091DF011F7746
:102150008091E3008078812B8093E3008091E800F8
:10216000877F8093E8000E94300E8091E80080FF16
:10217000FCCF8091E30080688093E300111102C0DE
:1021800082E001C083E08093DC018BC08058823004
:1021900008F087C08091DF019091E0018C3D53E011
:1021A000950779F583E08A838AE289834FB7F894AB
:1021B000DE01139620E03EE051E2E32FF0E0509381
:1021C0005700E49120FF03C0E295EF703F5FEF708E
:1021D0008E2F90E0EA3010F0C79601C0C0968D9324
:1021E0009D932F5F243149F74FBF8091E800877F8F
:1021F0008093E8006AE270E0CE0101960E943C0DF7
:1022000014C0AE014F5F5F4F6091E1010E94850CE9
:10221000BC01892B09F445C09091E800977F909309
:10222000E80089819A810E949A0D8091E8008B775D
:102230008093E80036C08038A1F58091E800877F60
:102240008093E8008091D8018093F1008091E800AC
:102250008E778093E8000E94300E23C0811121C048
:102260008091DF019091E00199270297D4F4809149
:10227000E800877F8093E8008091DF018093D80198
:102280000E94300E8091D801811106C08091E30038
:1022900087FD02C081E001C084E08093DC010E94E0
:1022A000500B8091E80083FF0AC08091E800877F8F
:1022B0008093E8008091EB0080628093EB00AA9607
:1022C0000FB6F894DEBF0FBECDBFDF91CF911F9147
:1022D000089590936801809367010895E0916701E4
:1022E000F0916801309721F00190F081E02D099480
:1022F00080E00895EF92FF921F93CF93DF93F82E23
:10230000192FE0916701F09168013097A9F10280DF
:10231000F381E02D09958091C70182FF2DC080FFD8
:1023200004C085E296E00E945F07CF2DD12F10E117
:102330008FE1E82E86E0F82E8091C70180FF0BC068
:1023400088811F928F93FF92EF920E94F8070F905F
:102350000F900F900F90115021961111EDCF809199
:10236000C70180FF09C08DE196E0DF91CF911F91F9
:10237000FF90EF900C945F07DF91CF911F91FF903A
:10238000EF900895E0916701F0916801309721F096
:102390000480F581E02D0994089520916501309124
:1023A00066012817390771F09093660180936501E3
:1023B000E0916701F0916801309721F00680F78184
:1023C000E02D09940895209163013091640128174C
:1023D000390771F09093640180936301E091670184
:1023E000F0916801309721F00084F185E02D099487
:1023F000089508950C94F9110E942A1E0E947808ED
:102400000C944020CF92DF92EF92FF920F931F9394
:10241000CF93DF9300D000D000D0CDB7DEB70E94BD
:1024200097088AE6C82E81E0D82E00E010E0E02E62
:10243000802F0E945F09F60141916F01F82EF4266A
:10244000B1F40F5F1F4F0A30110589F78FEF8983B1
:102450008A831B820E94331E8160782F9D838C8328
:1024600049815A816B818D810E94C11247C0909130
:10247000C70191FF04C08E830E9465098E8120E010
:1024800030E04F2D50E0922FBA01022E02C0759518
:1024900067950A94E2F760FF2BC02983EA8221E066
:1024A00030E0690102C0CC0CDD1C9A95E2F790E0A7
:1024B0008C219D21892B09F420E02B830E94331E5F
:1024C0008160782F9D838C8349815A816B818D81B6
:1024D0000E94C11249815A816B817C818D810E9449
:1024E000AB1DF801E659FE4F8081C826C08206C0A8
:1024F0002F5F3F4F2830310531F6A3CF0E94AA1D30
:102500000E94CA230E946E1190916901891741F1BE
:102510000E946E11809369019091C70192FF0EC0D5
:1025200090FF0CC01F928F9387E396E09F938F9349
:102530000E94F8070F900F900F900F908091690103
:1025400026960FB6F894DEBF0FBECDBFDF91CF91B8
:102550001F910F91FF90EF90DF90CF900C94BC1DD6
:1025600026960FB6F894DEBF0FBECDBFDF91CF9198
:102570001F910F91FF90EF90DF90CF9008950C94F2
:10258000AC09CF93DF93CDB7DEB72B970FB6F89496
:10259000DEBF0FBECDBF4F83588769877A878B8791
:1025A0008A859B85892B29F0CA019F3F09F54F3FFA
:1025B000F9F4DE01119686E0FD0111928A95E9F7A2
:1025C00085E0FE01379601900D928A95E1F74981E9
:1025D0005A816B817C818D819E810E94E9192B96A5
:1025E0000FB6F894DEBF0FBECDBFDF91CF91089537
:1025F0004F81588569857A858B850E94AB1DD9CF1F
:10260000CF93C82F882309F4CCC0823859F40E9494
:102610006E1181FDC6C089E30E94731C0E94531D88
:1026200089E30CC0833879F40E946E1180FDB9C033
:1026300083E50E94731C0E94531D83E50E94C31C06
:10264000CF910C94531D843859F40E946E1182FD71
:10265000A8C087E40E94731C0E94531D87E4EECF3C
:102660008CEF8C0F813A48F48C2F0E944A288111FC
:1026700098C08C2F0E94731CE3CF80E28C0F8830AF
:1026800048F4C77081E001C0880FCA95EAF70E943C
:10269000191DD6CF8BE58C0F833078F4C53A29F01D
:1026A000C63A31F083E890E005C081E890E002C0CE
:1026B00082E890E0CF910C94CD1188E58C0F8531A4
:1026C00008F06FC0C83A61F1C93A69F1CA3A71F1CC
:1026D000CB3A79F1CC3A81F1CD3A89F1CE3A91F108
:1026E000CF3A99F1C13BA1F1C03BA9F1C23BB1F195
:1026F000C33BB9F1C43BC1F1C53BC9F1C63BD1F104
:10270000C73BD9F1C83BE1F1C93BE9F1CA3BF1F163
:10271000CB3BF9F1CC3B09F43FC080E090E03EC0F8
:1027200082EE90E03BC089EE90E038C08AEE90E007
:1027300035C085EB90E032C086EB90E02FC083EB94
:1027400090E02CC084EB90E029C087EB90E026C09D
:102750008CEC90E023C08DEC90E020C083E891E009
:102760001DC08AE891E01AC082E991E017C084E9AF
:1027700091E014C081E292E011C083E292E00EC0C9
:1027800084E292E00BC085E292E008C086E292E02B
:1027900005C087E292E002C08AE292E0CF910C94F9
:1027A000E311CF910895882309F44BC0823859F47E
:1027B0000E946E1181FF45C089E30E94731C0E9434
:1027C000531D89E30CC0833871F40E946E1180FFA1
:1027D00038C083E50E94731C0E94531D83E50E944C
:1027E000C31C0C94531D843859F40E946E1182FF4F
:1027F00028C087E40E94731C0E94531D87E4EFCF1A
:102800009CEF980F913A58F390E2980F983050F45B
:10281000877091E001C0990F8A95EAF7892F0E948D
:102820001F1DDFCF9BE5980F933020F480E090E0F0
:102830000C94CD11885A853120F480E090E00C94FE
:10284000E3110895882321F00E94191D0C94531D53
:102850000895882321F00E941F1D0C94531D089594
:10286000BF92CF92DF92EF92FF920F931F93CF937D
:10287000DF9300D000D000D0CDB7DEB76C0185E08B
:10288000F601DE01119601900D928A95E1F7F601AD
:1028900083819481892B09F4E6C2908181818F3FE5
:1028A00019F49F3F09F4DFC2F601F28025812295D9
:1028B0002F7099838A8389819A812E830E94321C8A
:1028C000182FB92E0E94311C0E94411BEB2DE2955E
:1028D000EF704E2F50E0FA01EF58FF4F2E810C940D
:1028E000F02A8B2D807F9B2D9F70092F882311F05C
:1028F0000295007FFF2049F0002309F461C2802F78
:102900000E942C1D0E94531D5BC2812F0E94D31375
:10291000002309F4A8C2802F0E94321D26960FB60C
:10292000F894DEBF0FBECDBFDF91CF911F910F9105
:10293000FF90EF90DF90CF90BF900C94531D8B2DA4
:10294000807F9B2D9F70092F803211F00295007FB0
:10295000112319F0113009F12AC0FF20B1F0802FA6
:10296000222351F1213041F526960FB6F894DEBFAF
:102970000FBECDBFDF91CF911F910F91FF90EF90D0
:10298000DF90CF90BF900C943C1D222319F0213092
:1029900009F469C20E943F1D2DC0FF20F1F02630CE
:1029A00008F061C20E94161D802329F023C0FF2079
:1029B000F9F0211116C0802F26960FB6F894DEBFCD
:1029C0000FBECDBFDF91CF911F910F91FF90EF9080
:1029D000DF90CF90BF900C942214253008F043C2B2
:1029E00009C0F601858180FFEBC18F708583E3CF3D
:1029F0002111FBC1802F62C18B2D86958695837036
:102A000019F08130D1F02FC2FF2021F0812F9B2DB2
:102A1000937002C080E090E026960FB6F894DEBF77
:102A20000FBECDBFDF91CF911F910F91FF90EF901F
:102A3000DF90CF90BF900C94CD11FF2021F0812F1B
:102A40009B2D937002C080E090E026960FB6F8941C
:102A5000DEBF0FBECDBFDF91CF911F910F91FF90D1
:102A6000EF90DF90CF90BF900C94E311812FFF2067
:102A700019F00E94502202C00E94B82226960FB67A
:102A8000F894DEBF0FBECDBFDF91CF911F910F91A4
:102A9000FF90EF90DF90CF90BF900C943D238B2D53
:102AA000837009F075C0F110DEC1812F8295869583
:102AB0008770880F880F912F9F70C92ED12CE12C21
:102AC000F12C082E04C0CC0CDD1CEE1CFF1C0A945B
:102AD000D2F714FF12C00FE010E020E030E004C095
:102AE000000F111F221F331F8A95D2F7C901B801A9
:102AF000609570958095909503C060E070E0CB0183
:102B00004B2D4695469543704230C1F060F56C29D7
:102B10007D298E299F29413051F126960FB6F894D0
:102B2000DEBF0FBECDBFDF91CF911F910F91FF9000
:102B3000EF90DF90CF90BF900C94561B6C297D29AD
:102B40008E299F2926960FB6F894DEBF0FBECDBF03
:102B5000DF91CF911F910F91FF90EF90DF90CF9079
:102B6000BF900C94681B0E94561BC701B6012696A5
:102B70000FB6F894DEBF0FBECDBFDF91CF911F918E
:102B80000F91FF90EF90DF90CF90BF900C94441B7B
:102B9000FF2019F08B2D817001C08695882309F4E0
:102BA00062C1812F829586958770880F880F912F3B
:102BB0009F70C92ED12CE12CF12C082E04C0CC0C16
:102BC000DD1CEE1CFF1C0A94D2F714FF12C00FE0AC
:102BD00010E020E030E004C0000F111F221F331F5F
:102BE0008A95D2F7C901B801609570958095909546
:102BF00003C060E070E0CB014B2D469546954370D5
:102C00004230C1F060F56C297D298E299F29413021
:102C100051F126960FB6F894DEBF0FBECDBFDF91FF
:102C2000CF911F910F91FF90EF90DF90CF90BF90C9
:102C30000C940D1C6C297D298E299F2926960FB690
:102C4000F894DEBF0FBECDBFDF91CF911F910F91E2
:102C5000FF90EF90DF90CF90BF900C941F1C0E94CC
:102C60000D1CC701B60126960FB6F894DEBF0FBE45
:102C7000CDBFDF91CF911F910F91FF90EF90DF902B
:102C8000CF90BF900C94FB1B103F49F118F4103EFD
:102C900048F491C0123F09F453C0E8F1133F09F41E
:102CA00064C089C01F708B2D8F71FF2021F00E949E
:102CB000941B812F81CE0E94B51B812F26960FB6C3
:102CC000F894DEBF0FBECDBFDF91CF911F910F9162
:102CD000FF90EF90DF90CF90BF900C942914FF20CD
:102CE000B1F0253008F0BFC08B2D8F7126960FB63E
:102CF000F894DEBF0FBECDBFDF91CF911F910F9132
:102D0000FF90EF90DF90CF90BF900C94DA1B2630AD
:102D100008F0A9C0E9CFFF20A9F08B2D8F7126966E
:102D20000FB6F894DEBF0FBECDBFDF91CF911F91DC
:102D30000F91FF90EF90DF90CF90BF900C94941B79
:102D4000FF2059F38B2D8F7126960FB6F894DEBFB6
:102D50000FBECDBFDF91CF911F910F91FF90EF90EC
:102D6000DF90CF90BF900C94B51BFF2099F08B2D76
:102D70008F7126960FB6F894DEBF0FBECDBFDF91E0
:102D8000CF911F910F91FF90EF90DF90CF90BF9068
:102D90000C947F1B26960FB6F894DEBF0FBECDBFF6
:102DA000DF91CF911F910F91FF90EF90DF90CF9027
:102DB000BF900C947A1BFF20A9F0222309F4ADCF19
:102DC000812F26960FB6F894DEBF0FBECDBFDF91E0
:102DD000CF911F910F91FF90EF90DF90CF90BF9018
:102DE0000C940013222309F4ADCF812F26960FB641
:102DF000F894DEBF0FBECDBFDF91CF911F910F9131
:102E0000FF90EF90DF90CF90BF900C94D3134B2D99
:102E10004F70612FC6010E94010826960FB6F894E4
:102E2000DEBF0FBECDBFDF91CF911F910F91FF90FD
:102E3000EF90DF90CF90BF900C948E1A4B2D4F7077
:102E4000612FC60126960FB6F894DEBF0FBECDBF28
:102E5000DF91CF911F910F91FF90EF90DF90CF9076
:102E6000BF900C94EE1F26960FB6F894DEBF0FBEEF
:102E7000CDBFDF91CF911F910F91FF90EF90DF9029
:102E8000CF90BF9008950E94391D0E94081D0E9496
:102E9000531D0E946F240E943D2380E090E00E9419
:102EA000CD1180E090E00C94E3110E94291D0C9458
:102EB00043170E94321C292F22952F702C3030F49A
:102EC0002A3048F42250223078F405C02C3041F0EA
:102ED0002F3031F009C0803E48F0803F29F406C011
:102EE00093FB882780F9089580E0089581E0089594
:102EF000CF93DF9300D000D01F92CDB7DEB70F90F5
:102F00000F900F900F900F90DF91CF910895CF9376
:102F1000DF9300D000D000D0CDB7DEB726960FB635
:102F2000F894DEBF0FBECDBFDF91CF9108951F9300
:102F3000CF93DF93C091740116E080917501C8179B
:102F400099F0D0E01C9FF0011D9FF00D1124EA586C
:102F5000FE4F4081518162817381848195810E94FD
:102F600087172196C770E9CFDF91CF911F91089500
:102F70004091A6015091A7016091A8017091A9010B
:102F80008091AA019091AB010C9487178091AB01BD
:102F900082958F7009F054C08091A801882309F4AC
:102FA0004FC080917401A09175014091A901509189
:102FB000AA016091A6017091A701B6E08A1709F4F1
:102FC0003FC090E041155105C1F17F3F11F46F3FC3
:102FD000A1F1B89FF001B99FF00D1124EA58FE4FFE
:102FE000218127132AC02081261327C02281211185
:102FF00024C0238134812417350710F4215031096E
:10300000241B350B283C3105C0F42091AB012F70F7
:1030100020612093AB0126E0289FF001299FF00D4D
:103020001124E558FE4F80818F708061808386EA8D
:1030300091E00E9430140C94971701968770BECFD0
:103040000895CF92DF92EF92FF920F931F93CF9349
:10305000DF93CDB7DEB762970FB6F894DEBF0FBE31
:10306000CDBF8C0185E0F801DE011D9601900D9227
:103070008A95E1F7D8014C9111965C9111971296BF
:103080006C918091A9019091AA01009709F475C1F2
:103090003091A6017091A7017F3F19F43F3F09F4D9
:1030A0006CC1F801C380D480E090A801EE2009F43F
:1030B000BEC02091AB01C816D90628F0D601A81BC6
:1030C000B90BCD0104C0809590958C0D9D1DFF24FA
:1030D000F394883C910578F0F12C207F09F0C4C06E
:1030E0007C2DD98AC88A89890E94781786EA91E05E
:1030F0000E943014AFC0822F807F09F045C0571363
:1031000013C0431311C061110FC02F7020612093B1
:10311000AB010E94B81786EA91E00E9430148091BA
:10312000AB01F80185832EC0CD2819F15F3F11F462
:103130004F3FF9F0F62E61111CC08091740120916F
:10314000750136E0821709F45BC090E0389FF0010A
:10315000399FF00D1124EA58FE4F7181571306C0B4
:103160007081471303C07281711103C0019687708B
:10317000E9CFF62E662309F41CC18091AB01816072
:103180008093AB01F12C15C1571309C0431307C03D
:10319000611105C08091AB01F8018583C8C04D87DE
:1031A0005E878D859E856A8B0E9459176A89882360
:1031B000D1F16623C1F12091AB01822F82958F70EE
:1031C00090E0029774F08091A6019091A7019887F2
:1031D0008F831986DB86CA862C87CE0107960E94CC
:1031E000301486E0F801A6EAB1E001900D928A95CC
:1031F000E1F70E94C6170E94B817FF24F394D9C0C4
:103200004D875E878D859E850E94321C292F2295D1
:103210002F70223008F0C1C09F7009F0BBC0805EE3
:10322000883008F4C6C0C8010E943014E6CFC81622
:10323000D90608F453C0F601E81BF90BCF01883C0E
:10324000910508F450C0F12C7C2DD98AC88A89894F
:103250000E947817E6EAF1E086E0DF011D928A9588
:10326000E9F70E94B817A5C0571314C0431312C042
:10327000611110C08091AB01F8018583C8010E94E3
:10328000301486E0E6EAF1E0DF011D928A95E9F765
:10329000FE2C8FC04D875E878D859E856A8B0E9430
:1032A00059176A89882309F4BECF662309F4BBCF76
:1032B0002091AB01822F82958F7090E002970CF4E1
:1032C00090CF8091A6019091A7019A8389831B8258
:1032D000DD82CC822E83CE01019681CF80959095A0
:1032E0008C0D9D1DACCFF62E662309F49CCF571391
:1032F00033C0431331C02091AB0120FD24C0822F85
:1033000082958F70482F50E041155105E1F0D801AA
:1033100015962C9315974F30510549F08F5F982FD4
:103320009295907F822F8F70892B15968C93C80170
:103330000E94301486E0F801A6EAB1E001900D92F7
:103340008A95E1F78ECF86E0F801A6EAB1E0019018
:103350000D928A95E1F72DC04D875E878D859E85FC
:103360000E94591781113DCF8091AB0181608093FC
:10337000AB01C8010E9430141CC0662309F453CF6E
:103380004D875E878D859E850E945917882309F495
:103390004ACF27CF811143CF0CC0243008F043CF50
:1033A0009F7009F43CCFD80115969C91907F09F04D
:1033B00036CF8F2D62960FB6F894DEBF0FBECDBF0D
:1033C000DF91CF911F910F91FF90EF90DF90CF9001
:1033D00008951F93CF93DF93CDB7DEB72C970FB629
:1033E000F894DEBF0FBECDBF4F83588769877A87B9
:1033F0008B879C87CE0107960E942118882371F045
:103400008A859B85892B09F441C088858F3F09F007
:1034100065C08F818F3F09F061C038C086E0FE0132
:103420003796DE01119601900D928A95E1F76A8533
:103430007B856115710551F1FF81E885EF3F11F43E
:10344000FF3F21F12091750130E0C901019687709D
:1034500099274091740150E08417950709F447C0FB
:10346000F983EA837D836C8396E0929FD001939FDA
:10347000B00D1124AA58BE4FFE01319601900D9255
:103480009A95E1F7809375010E94971716E0809155
:103490007401909175018917B9F1189FC001112429
:1034A0008A589E4F0E942118882371F1E09174017F
:1034B0001E9FF0011124EA58FE4F40815181628124
:1034C0007381848195810E9487178091740190E0B7
:1034D00001968770992780937401D9CF4F815885C1
:1034E00069857A858B859C850E948717CFCF0E943E
:1034F00055171092750110927401E6EAF1E086E02A
:10350000DF011D928A95E9F72C960FB6F894DEBF7D
:103510000FBECDBFDF91CF911F910895DF92EF9243
:10352000FF920F931F93CF93DF93FC01892B09F434
:1035300088C0E12CF12CDD24D394EF0121968491F5
:10354000853709F460C058F4843708F04EC08430E1
:1035500008F068C08130D1F0823071F172C08837D4
:1035600009F45BC050F4863709F453C0873709F07B
:1035700068C08E2D0E94261D52C09CE7980F903780
:1035800008F05FC08F770E94D3134EC08F010E5F8B
:103590001F4FFE01849190E2980F983050F487708D
:1035A000FD2D01C0FF0F8A95EAF78F2F0E942C1D79
:1035B00015C00E94001314C08F010E5F1F4FFE0143
:1035C000849190E2980F983068F48770FD2D01C0C7
:1035D000FF0F8A95EAF78F2F0E94321D0E94531D1C
:1035E000E80122C00E94D313FBCFCF010296FE0157
:1035F000C491CC2361F0EFE9FFE03197F1F700C00F
:103600000000C150F6CFCF010296FE01F490EC010C
:103610000BC00E94161DE82E07C00E94291D0E94A3
:10362000531D02C00E9400138F2D882341F0EFE943
:10363000FFE03197F1F700C000008150F6CFFE01A6
:103640007CCFDF91CF911F910F91FF90EF90DF9092
:1036500008956093B0017093B1018093B20190938B
:10366000B3010E94BA1D0C9443176093AC01709390
:10367000AD018093AE019093AF010E94BB1D0C94ED
:10368000431708950C94291B0F931F930091B001C9
:103690001091B1012091B2013091B301602B712BD7
:1036A000822B932B1F910F910C94291B0F931F9327
:1036B0000091B0011091B1012091B2013091B3019C
:1036C00060237123822393231F910F910C94291B54
:1036D0000F931F930091B0011091B1012091B2019D
:1036E0003091B30160277127822793271F910F9193
:1036F0000C94291B60E070E0CB010C94351B0F93F8
:103700001F9341E050E060E070E08A019B0104C03B
:10371000000F111F221F331F8A95D2F7C901B8016C
:103720001F910F910C94351B0F931F9341E050E0B4
:1037300060E070E004C0440F551F661F771F8A9534
:10374000D2F78091AC019091AD01A091AE01B09102
:10375000AF018A019B01082B192B2A2B3B2BC90196
:10376000B8011F910F910C94351B0F931F9341E0EB
:1037700050E060E070E004C0440F551F661F771FE3
:103780008A95D2F740955095609570958091AC01DF
:103790009091AD01A091AE01B091AF018A019B0162
:1037A000082319232A233B23C901B8011F910F9134
:1037B0000C94351B0F931F9341E050E060E070E0E4
:1037C00004C0440F551F661F771F8A95D2F780915A
:1037D000AC019091AD01A091AE01B091AF018A0111
:1037E0009B01082719272A273B27C901B8011F91E8
:1037F0000F910C94351B0F931F930091AC01109106
:10380000AD012091AE013091AF01602B712B822B65
:10381000932B1F910F910C94351B0F931F930091C5
:10382000AC011091AD012091AE013091AF01602348
:103830007123822393231F910F910C94351B0F93B7
:103840001F930091AC011091AD012091AE01309118
:10385000AF0160277127822793271F910F910C9446
:10386000351B0895CF92DF92EF92FF920F931F9333
:10387000CF93DF938C01C090AC01D090AD01E0906C
:10388000AE01F090AF018091B0019091B101A09193
:10389000B201B091B301C82AD92AEA2AFB2ACFE1A2
:1038A000D0E0D701C6010C2E04C0B695A795979518
:1038B00087950A94D2F780FF07C0B8018C2F0E9429
:1038C0007B1F8130910531F4219758F7B80180E0D2
:1038D0000E947B1FDF91CF911F910F91FF90EF907E
:1038E000DF90CF90089590910B01992379F19091F9
:1038F0000C01992359F1982F9695969596959F309E
:10390000A0F4E0910D01F0910E01E90FF11D877017
:1039100021E030E0A90102C0440F551F8A95E2F76B
:10392000CA019181892B818308959091C70190FFED
:1039300029C01F928F9380E696E09F938F930E94F9
:10394000F8070F900F900F900F90089520910D01A0
:1039500030910E01F90132969FEF40E051918517A9
:1039600089F09F3F19F4511101C0942F4F5F4E30E1
:10397000A9F79F3F39F0F901E90FF11D97FDFA957D
:1039800082830895089590910B01992381F190917C
:103990000C01992361F1982F9695969596959F30F5
:1039A000A8F4E0910D01F0910E01E90FF11D87706F
:1039B00021E030E0A90102C0440F551F8A95E2F7CB
:1039C000CA01809591818923818308959091C701CF
:1039D00090FF1DC01F928F9382E496E09F938F9378
:1039E0000E94F8070F900F900F900F90089520916C
:1039F0000D0130910E01F9013296205F3F4F908109
:103A0000891301C010823196E217F307C1F70895B8
:103A100081E090E0E0910D01F0910E01E80FF91FB7
:103A20001082019680319105A9F708958091C60111
:103A300008959091C601892B8093C60108958095C1
:103A40009091C60189238093C60108958093C60191
:103A500008951092C60108959091C501892B809315
:103A6000C501089580959091C50189238093C50172
:103A700008951092C50108958093B401089510929D
:103A8000B401089580910D0190910E01FC013196D1
:103A90009C01205F3F4F80E0919191118F5FE21771
:103AA000F307D1F70895E0910D01F0910E01809197
:103AB000C6018083E0910D01F0910E01908180910B
:103AC000C501892B80838091B401882361F0E09146
:103AD0000D01F0910E019081892B80830E94421D7F
:103AE00081111092B40180910D0190910E010C94FE
:103AF0007A11909339018093380108958295982F17
:103B0000937344E0949F900111248C7C8695869554
:103B1000282B822F8575880F2A7A2695822B089567
:103B20001F93CF93DF931F92CDB7DEB799830E9487
:103B30007E1D182F9981892F0E947E1D212F30E034
:103B4000322F2227A901482BCA010F90DF91CF9174
:103B50001F9108950895CF93DF9300D000D01F9256
:103B6000CDB7DEB70F900F900F900F900F90DF91B1
:103B7000CF910895089508950C94BF1208958091EF
:103B8000DC01843021F11092C80120E488E190E04A
:103B90000FB6F894A895809360000FBE2093600044
:103BA00083B7817F846083BF83B7816083BF78944C
:103BB000889583B78E7F83BF0FB6F894A8958091C0
:103BC0006000886180936000109260000FBE0895CD
:103BD00008950C94E81DCF930E94E91D0E94970858
:103BE0000E94E81DC0E08C2F0E945F09811104C073
:103BF000CF5FCA30C1F701C081E0CF9108950C9426
:103C000055171F920F920FB60F9211248F939F9307
:103C1000AF93BF938091C801811113C08091C901F6
:103C20009091CA01A091CB01B091CC014196A11D08
:103C3000B11D8093C9019093CA01A093CB01B093A9
:103C4000CC01BF91AF919F918F910F900FBE0F90BC
:103C50001F90189582E084BD93E095BD9AEF97BDC3
:103C600080936E0008952FB7F8948091C9019091C8
:103C7000CA01A091CB01B091CC012FBF08952FB7FD
:103C8000F8946091C9017091CA018091CB01909123
:103C9000CC012FBF0895CF92DF92EF92FF920F9346
:103CA0001F932FB7F8944091C9015091CA016091B8
:103CB000CB017091CC012FBF6A017B01EE24FF2460
:103CC0008C0120E030E0C016D106E206F30610F4C5
:103CD000415051099A01281B390BC9011F910F91BD
:103CE000FF90EF90DF90CF9008951F920F920FB644
:103CF0000F9211248F939F93AF93BF938091C9012B
:103D00009091CA01A091CB01B091CC010196A11D67
:103D1000B11D8093C9019093CA01A093CB01B093C8
:103D2000CC01BF91AF919F918F910F900FBE0F90DB
:103D30001F9018950E94820EF8942FEF87EA91E663
:103D4000215080409040E1F700C0000087E090EBF8
:103D5000DC018093E6019093E701A093E801B09322
:103D6000E9019CE088E10FB6F894A8958093600083
:103D70000FBE90936000FFCF8D3B50F4883A70F5F2
:103D8000853A18F58430F8F4813009F46CC068C0C5
:103D9000883E98F4803EB8F48F3B09F061C00E94E1
:103DA00055172FEF80E792E0215080409040E1F7D7
:103DB00000C000000E949A1E53C0803F08F450C00B
:103DC00090E09065089590E00895853A09F44EC01A
:103DD000863A09F44EC083E890E40895883A09F4DD
:103DE0004BC0893A09F44BC08A3A09F44BC08B3A6C
:103DF00009F44BC08C3A09F44BC08D3A09F44BC01E
:103E00008E3A09F44BC08F3A09F44BC0813B09F458
:103E10004BC0803B09F44BC0823B09F44BC0833B51
:103E200009F44BC0843B09F44BC0853B09F44BC0FB
:103E3000863B09F44BC0873B09F44BC0883B09F42F
:103E40004BC0893B09F44BC08A3B09F44BC08B3B08
:103E500009F44BC08C3B09F44BC080E094E4089516
:103E600080E090E0089581E090E0089581E890E49A
:103E7000089582E890E4089582EE94E4089589EE2E
:103E800094E408958AEE94E4089585EB94E408950B
:103E900086EB94E4089583EB94E4089584EB94E432
:103EA000089587EB94E408958CEC94E408958DECE8
:103EB00094E4089583E895E408958AE895E40895E4
:103EC00082E995E4089584E995E4089581E296E411
:103ED000089583E296E4089584E296E4089585E2E5
:103EE00096E4089586E296E4089587E296E40895BC
:103EF0008AE296E408950E945008803EA8F4803C2F
:103F000000F5813309F45CC038F4893209F452C0F9
:103F10008A3209F45BC05FC08933B1F08238A1F006
:103F2000853309F441C057C0833E41F128F4803EF7
:103F300099F0823EB9F04FC0863E31F1873E71F173
:103F40004AC00E94620808959091E50190FD02C068
:103F500091FF41C080EE3FC08091E50180FFFACF24
:103F600089E339C08091E50182FF0CC08091E501B1
:103F700084FF02C080E02FC083EE2DC08091E50158
:103F800082FFF4CF82EE27C08091E50183FF0AC053
:103F90008091E50184FDEECF87EE1DC08091E501A3
:103FA00083FFF6CF86EE17C08091E50185FF06C03E
:103FB00089E211C08091E50185FFFACF85E30BC04E
:103FC0008091E50186FF06C08AE205C08091E50187
:103FD00086FFFACF81E30E94BC1E08950895CF9218
:103FE000DF92EF92FF920F931F93CF936C01C0E08B
:103FF0008C2F0E945F0900E010E0E82EF12CC70131
:10400000002E02C0959587950A94E2F780FF15C0AF
:10401000602F7C2F80E00E947B1F8C159D0559F03E
:10402000292F207E392F307C11F0203A31F490E096
:10403000C816D90611F481E009C00F5F1F4F083080
:104040001105E9F6CF5FCA3099F680E0CF911F9154
:104050000F91FF90EF90DF90CF900895CF93DF9373
:10406000EC018CE290E00E94EF1F882329F0CE0142
:10407000DF91CF910C94EF1F80E0DF91CF910895F5
:10408000CF930E94A821811102C00E948E2185E851
:1040900096E00E945F07C5E6C15049F00E9497086C
:1040A0008FE39CE90197F1F700C00000F5CF8EE7A0
:1040B00096E00E945F0789E290E00E942E20811125
:1040C0002BC18AE290E00E942E2081110E948E2155
:1040D00085E090E00E942E2081110E949A1E0E948D
:1040E000BE1D0E94B3218093C70187E090E00E942B
:1040F0002E208823C1F18BE190E00E942E2088239E
:1041000051F08091C70181FB222720F991E092278D
:1041100090FB81F90FC08EE090E00E942E20882352
:1041200061F08091C70182FB222720F991E092275C
:1041300090FB82F98093C70116C080E190E00E9455
:104140002E209091C701882341F093FB222720F96C
:1041500081E0822780FB93F904C0892F809580FB42
:1041600090F99093C7018091C7010E94B7210E94E6
:10417000C5218093E50180EE90E00E942E208823E7
:1041800041F08091E501982F909590FB80F9809304
:10419000E50189E390E00E942E20882359F0809168
:1041A000E50181FB222720F991E0922790FB81F91C
:1041B0008093E50182EE90E00E942E20882359F042
:1041C0008091E50182FB222720F991E0922790FB64
:1041D00082F98093E50186EE90E00E942E208823EC
:1041E00059F08091E50183FB222720F991E0922785
:1041F00090FB83F98093E50183EE90E00E942E20EE
:10420000882359F08091E50184FB222720F991E071
:10421000922790FB84F98093E50185E390E00E946A
:104220002E20882359F08091E50185FB222720F973
:1042300091E0922790FB85F98093E50181E390E07E
:104240000E942E20882359F08091E50186FB2227C9
:1042500020F991E0922790FB86F98093E50181E1B6
:1042600090E00E942E20882359F08091E50187FB81
:10427000222720F991E0922790FB87F98093E501AE
:104280008091E5010E94C9218091E50187FB882783
:1042900080F980930C0187E290E00E942E20C82FC5
:1042A0008EE190E00E942E208111C2608FE190E0AB
:1042B0000E942E208111C46080E290E00E942E2096
:1042C0008111C86081E290E00E942E208111C061BE
:1042D00082E290E00E942E208111C06283E290E091
:1042E0000E942E208111C06484E290E00E942E2062
:1042F000882311F0C06802C0CC2329F08C2F0E94C3
:10430000C0216C2F03C00E94BC21682F70E080E0A8
:1043100090E0CF910C94421BCF9108956DEE7EEF0B
:1043200080E090E00E94262B60E082E090E00E9416
:10433000182B60E083E090E00E94182B60E084E09E
:1043400090E00E94182B60E085E090E00C94182B20
:1043500080E090E00E94122B21E08D3E9E4F09F0FC
:1043600020E0822F089582E090E00C940A2B682FC1
:1043700082E090E00C94182B83E090E00C940A2BE0
:10438000682F83E090E00C94182B84E090E00C946C
:104390000A2B682F84E090E00C94182B8091CF01B9
:1043A00080FF0BC06091120185E0689FB00111246D
:1043B00075956795759567952BC081FF09C06091CC
:1043C000120185E0689FB00111247595679520C0A2
:1043D00082FF07C06091120185E0689FB00111243F
:1043E00017C09091D0019923D1F0609111019617D7
:1043F00088F72091120185E0289F90011124929F57
:10440000A001939F500D112470E0CA010E94DC2A84
:104410006038710540F46115710519F406C065E056
:1044200070E0862F08958FE7089581E008958091C8
:10443000CF0180FF08C06091100170E0759567950D
:104440007595679521C081FF06C06091100170E0ED
:104450007595679519C082FF04C06091100170E0E6
:1044600010C09091D001992399F060910F01961797
:10447000A0F780911001899FC001112470E00E9473
:10448000DC2A6038710540F46115710519F406C025
:1044900061E070E0862F08958FE7089581E0089528
:1044A000803F21F40E94CE21819504C0813F29F4F0
:1044B0000E94CE218093D3010895823F21F40E946F
:1044C000CE21819504C0833F29F40E94CE218093A0
:1044D000D2010895893F19F40E94172205C08A3F2E
:1044E00031F40E94172281958093D40108958B3F67
:1044F00021F40E941722819504C08C3F29F40E9468
:1045000017228093D5010895843F21F48091D10131
:10451000816017C0853F21F48091D101826011C074
:10452000863F21F48091D10184600BC0873F21F444
:104530008091D101886005C0883F31F48091D1011C
:1045400080618093D10108958D3F21F48091CF0146
:1045500081600BC08E3F21F48091CF01826005C045
:104560008F3F29F48091CF0184608093CF0108951B
:10457000803F39F48091D30187FF6CC01092D30142
:1045800069C0813F29F48091D3011816BCF362C041
:104590009091D201823F29F497FF5CC01092D20122
:1045A00059C0833F19F41916CCF354C0893F41F424
:1045B0008091D40118160CF04DC01092D4014AC05D
:1045C0008A3F29F48091D40187FF44C0F6CF8B3F06
:1045D00039F48091D50187FF3DC01092D5013AC0D2
:1045E0008C3F29F48091D5011816BCF333C0843F69
:1045F00021F48091D1018E7F17C0853F21F48091F5
:10460000D1018D7F11C0863F21F48091D1018B7F34
:104610000BC0873F21F48091D101877F05C0883F7F
:1046200031F48091D1018F7E8093D10113C08D3FF1
:1046300021F48091CF018E7F0BC08E3F21F48091B9
:10464000CF018D7F05C08F3F29F48091CF018B7FF3
:104650008093CF018091D20181110EC08091D3014E
:1046600081110AC08091D401811106C08091D501C9
:10467000811102C01092D00108958091C70183FF7B
:104680007EC081EC96E00E945F078091D1011F926D
:104690008F938CEB96E09F938F930E94F8078AEBA1
:1046A00096E00E945F078091D201282F082E000C0F
:1046B000330B3F938F9387EB96E09F938F930E94EA
:1046C000F80785EB96E00E945F078091D301282FC1
:1046D000082E000C330B3F938F9382EB96E09F9351
:1046E0008F930E94F80780EB96E00E945F0780910D
:1046F000D401282F082E000C330B3F938F938DEAA3
:1047000096E09F938F930E94F8078BEA96E00E94B1
:104710005F078091D501282F082E000C330B3F93A3
:104720008F9388EA96E09F938F930E94F80785EA1B
:1047300096E00E945F078091D0011F928F9382EADA
:1047400096E09F938F930E94F80780EA96E00E947C
:104750005F078091CF011F928F938DE996E09F9321
:104760008F930E94F8078AE996E00E945F078DB751
:104770009EB74C960FB6F8949EBF0FBE8DBF81EDCD
:1047800091E00E94C2110E94331E9093CE0180934B
:10479000CD0108951F93CF93DF938091CD01909128
:1047A000CE010E944B1EAC019091D001992321F0C3
:1047B0002091130130E006C0209114018AE0289F67
:1047C000900111244217530708F485C08091D2014B
:1047D000C091D301D091D4011091D501811107C0AE
:1047E000C11175C0D11173C0111171C074C09F3F48
:1047F00019F09F5F9093D001181624F40E94CE21E7
:104800008093D2018091D20187FF05C00E94CE2102
:1048100081958093D2011C1624F40E94CE218093AE
:10482000D3018091D30187FF05C00E94CE218195DD
:104830008093D3016091D201662331F1C091D301FD
:10484000CC2311F1062E000C770B880B990B0E94DC
:10485000D72923E333E343E35FE30E943B2A0E942B
:104860009F296093D2016C2FCC0F770B880B990B8B
:104870000E94D72923E333E343E35FE30E943B2A0B
:104880000E949F296093D3011D1624F40E941722D1
:104890008093D4018091D40187FF05C00E94172224
:1048A00081958093D401111624F40E9417228093DD
:1048B000D5018091D50187FF05C00E9417228195FF
:1048C0008093D501DF91CF911F910C943D239F3FA1
:1048D00009F08FCFA0CFDF91CF911F910895E1ED27
:1048E000F1E085E0DF011D928A95E9F71092D00191
:1048F0001092CF01089584EE98E00E945F071F9206
:1049000081E08F931F9285E08F9386E998E09F93D3
:104910008F930E94F8070F900F900F900F900F90B9
:104920000F9008958330E9F128F4813061F08230EE
:1049300009F10895853009F462C008F449C0863051
:1049400009F474C0089580911401262F30E0280FD7
:10495000311D2F3F310524F4680F6093140103C00B
:104960008FEF80931401809114011F928F938FEC2D
:1049700097E072C080911301262F30E0280F311D7F
:104980002F3F310524F4680F6093130103C08FEFAC
:1049900080931301809113011F928F938DEB97E009
:1049A0005BC080911201262F30E0280F311D2F3F70
:1049B000310524F4680F6093120103C08FEF8093D8
:1049C0001201809112011F928F938AEA97E044C0EE
:1049D00080911101262F30E0280F311D2F3F310526
:1049E00024F4680F6093110103C08FEF80931101CD
:1049F000809111011F928F9385E997E02DC08091DE
:104A00001001262F30E0280F311D2F3F310524F4EF
:104A1000680F6093100103C08FEF809310018091A5
:104A200010011F928F938CE797E016C080910F01C1
:104A3000262F30E0280F311D2F3F310524F4680F59
:104A400060930F0103C08FEF80930F0180910F01DE
:104A50001F928F9381E697E09F938F930E94F807B0
:104A60000F900F900F900F900895833081F128F4EC
:104A7000813059F08230D1F00895853009F449C071
:104A8000B8F1863009F456C0089580911401681772
:104A900020F4861B8093140102C0109214018091AF
:104AA00014011F928F9382E597E054C08091130107
:104AB000681720F4861B8093130102C01092130123
:104AC000809113011F928F9380E497E043C08091FF
:104AD0001201681720F4861B8093120102C0109205
:104AE0001201809112011F928F938DE297E032C0E4
:104AF00080911101681720F4861B8093110102C078
:104B000010921101809111011F928F9388E197E01B
:104B100021C080911001681720F4861B809310013A
:104B200002C010921001809110011F928F938FEF9D
:104B300096E010C080910F01681720F4861B8093C7
:104B40000F0102C010920F0180910F011F928F93ED
:104B500084EE96E09F938F930E94F8070F900F903A
:104B60000F900F900895CF93C82F1F928F9389EEC7
:104B700099E09F938F930E94F80781E090E0A0E076
:104B8000B0E0BC01CD0104C0660F771F881F991FDC
:104B9000CA95D2F70E94421B0F900F900F900F9072
:104BA000CF910C945517CF938B3109F4CBC108F0FA
:104BB00049C08E3009F4DAC100F5873009F4A9C183
:104BC000A8F4863009F05AC28091C701817F8E7F98
:104BD0008093C7018EEE99E00E945F0785E09EE01A
:104BE0000E945F0781E08093D70191C1883009F46A
:104BF0005BC08B3009F487C141C2813109F426C200
:104C000020F4803109F4C6C139C2863109F4DDC10E
:104C1000893109F033C289E79DE00E945F0782E68F
:104C20009DE00E945F0787E29DE00E945F0780E0B1
:104C30009DE00E945F078BEB9CE00E945F0780E98C
:104C40009CE063C1853309F413C268F4873209F428
:104C50000FC228F48E3108F411C28D510CC2893272
:104C600009F406C20BC2833438F48A3308F002C256
:104C7000883309F448C102C2833409F4F9C1883485
:104C800009F0FCC10E94551784EF9DE00E945F0768
:104C90009FEF23ED80E3915020408040E1F700C07A
:104CA00000000E949A1E33C189E09EE00E945F07C7
:104CB0008DEE9BE00E945F070E94BC211F928F93A4
:104CC0008AEE9BE09F938F930E94F80788EE9BE00B
:104CD0000E945F070E94B321C82F85ED9BE00E94D0
:104CE0005F071F92CF9380ED9BE09F938F930E946D
:104CF000F8078EEC9BE00E945F0784EC9BE00E942B
:104D00005F078C2F81701F928F9381EC9BE09F93A4
:104D10008F930E94F8078FEB9BE00E945F0785EB63
:104D20009BE00E945F07C1FB882780F91F928F9349
:104D300082EB9BE09F938F930E94F80780EB9BE0B0
:104D40000E945F0784EA9BE00E945F07C2FB8827FE
:104D500080F91F928F9381EA9BE09F938F930E942B
:104D6000F8078FE99BE00E945F0786E99BE00E94BD
:104D70005F07C3FBCC27C0F91F92CF9383E99BE069
:104D80009F938F930E94F80781E99BE00E945F0741
:104D90000E94C521C82F8DE79BE00E945F071F92EC
:104DA000CF9388E79BE09F938F930E94F80786E755
:104DB0009BE00E945F078DE59BE00E945F078C2FC0
:104DC00081701F928F938AE59BE09F938F930E943F
:104DD000F8078DB79EB780960FB6F8949EBF0FBEAA
:104DE0008DBF88E59BE00E945F0781E49BE00E9405
:104DF0005F07C1FB882780F91F928F938EE39BE0AA
:104E00009F938F930E94F8078CE39BE00E945F07BB
:104E10008AE29BE00E945F07C2FB882780F91F920D
:104E20008F9387E29BE09F938F930E94F80785E220
:104E30009BE00E945F0783E19BE00E945F07C3FB4A
:104E4000882780F91F928F9380E19BE09F938F9337
:104E50000E94F8078EE09BE00E945F0784E09BE0E1
:104E60000E945F07C4FB882780F91F928F9381E01F
:104E70009BE09F938F930E94F8078FEF9AE00E9428
:104E80005F078DEE9AE00E945F07C5FB882780F9D7
:104E90001F928F938AEE9AE09F938F930E94F80758
:104EA00088EE9AE00E945F078CEC9AE00E945F0710
:104EB000C6FB882780F91F928F9389EC9AE09F9315
:104EC0008F930E94F80787EC9AE00E945F078FEBB0
:104ED0009AE00E945F07C7FBCC27C0F91F92CF93CF
:104EE0008CEB9AE09F938F930E94F8078AEB9AE0ED
:104EF0000E945F078DB79EB74C960FB6F8949EBF81
:104F00000FBE8DBF04C085E19AE00E945F07C1E03B
:104F1000BAC08091C701C82FC17080FF09C087EE59
:104F20009DE00E945F078091C701817F8E7F47C00F
:104F30008BED9DE00E945F078091C70181608093A7
:104F4000C701E5CF9091C70191FBCC27C0F981E063
:104F5000C827892FC0FB81F98093C701CC2319F0A2
:104F60008EEC9DE027C080EC9DE0CFCF9091C701F3
:104F700092FBCC27C0F981E0C827892FC0FB82F9BA
:104F80008093C701CC2319F081EB9DE013C081EA27
:104F90009DE0BBCF9091C70193FBCC27C0F981E086
:104FA000C827892FC0FB83F98093C701CC2351F018
:104FB00085E99DE00E945F078091C7018160809331
:104FC000C70161C088E89DE0A0CF82E89CE00E9414
:104FD0005F070E946E111F928F9388E69CE09F935B
:104FE0008F930E94F80780910B011F928F9381E5A8
:104FF0009CE09F938F930E94F807809162011F921B
:105000008F938EE39CE09F938F930E94F80780918B
:105010000C011F928F938BE29CE09F938F930E94D1
:10502000F8070E943F1E9F938F937F936F9384E1B5
:105030009CE09F938F930E94F8078DB79EB746968A
:105040000FB6F8949EBF0FBE8DBF61CF0E9455175B
:10505000C0910C0181E0C827C0930C01CC2329F03A
:105060008AE09CE00E945F070EC08FEF9BE04DCF6F
:1050700080E001C089530E94B32549CF8DEF9BE0AA
:105080000E945F07C0E08C2FCF91089580E00895C3
:105090000C944628CF93C82F8091D701813071F0AE
:1050A00020F0823009F44BC042C1E0910D01F09133
:1050B0000E018081823209F03CC107C0E0910D01F0
:1050C000F0910E018081823261F48C2F0E94482879
:1050D000811104C08C2F0E94D3252FC081E090E065
:1050E0002CC08C2F0E944628811126C0C431E1F0CB
:1050F00070F4CB3081F0C031D1F40E947B2481EE7A
:1051000099E00E945F0782E08093D70115C0C93201
:1051100059F0C83361F48EEE99E00E945F0785EE86
:1051200099E00E945F0708C01092D70104C18FED7B
:1051300099E00E945F07FFC081E08170FEC0C43229
:1051400028F5CE3108F0C1C0CB30A1F1D0F4C73082
:1051500009F0D3C08EE18093140182E380931301A0
:105160008AE08093120184E18093110188E08093AA
:10517000100188E280930F0185E898E00E945F07A4
:10518000BFC0C33149F1C431C1F0B7C0CB3409F459
:10519000A9C028F4C93289F0C83361F0AEC0C13566
:1051A00009F49EC0C23509F499C0CE3409F0A5C0F7
:1051B0006AE09EC00E947B24A3C08091D601882310
:1051C00019F01092D6019CC082E998E00E945F0716
:1051D00081E08093D701B1C08CE698E00E945F0720
:1051E0008AE598E00E945F07809114011F928F93D7
:1051F00087E598E09F938F930E94F80785E598E0F4
:105200000E945F0783E498E00E945F07809113018A
:105210001F928F9380E498E09F938F930E94F807EA
:105220008EE398E00E945F078FE298E00E945F079C
:10523000809112011F928F938CE298E09F938F933D
:105240000E94F8078AE298E00E945F0789E198E0EF
:105250000E945F07809111011F928F9386E198E071
:105260009F938F930E94F80784E198E00E945F0764
:105270008FEF97E00E945F07809110011F928F933C
:105280008CEF97E09F938F930E94F8078AEF97E047
:105290000E945F0783EE97E00E945F0780910F01F5
:1052A0001F928F9380EE97E09F938F930E94F80751
:1052B0008EED97E00E945F078DB79EB748960FB6B8
:1052C000F8949EBF0FBE8DBF1BC0CE51EC2FF0E0F7
:1052D000E25DFE4F80818093D60112C061E003C081
:1052E00061E006C06AE08091D6010E94922408C065
:1052F0008091D6010E94352503C083E898E013C051
:105300008091D601882369F01F928F938DE798E0F2
:105310009F938F930E94F8070F900F900F900F901C
:1053200004C08AE798E00E945F0781E006C01092FF
:10533000D70180E002C080E000CFCF9108950E94A5
:10534000A6296894B1110C94352A08950E941A2A4E
:1053500088F09F5798F0B92F9927B751B0F0E1F036
:10536000660F771F881F991F1AF0BA95C9F714C0E6
:10537000B13091F00E94342AB1E008950C94342A9F
:10538000672F782F8827B85F39F0B93FCCF386951F
:1053900077956795B395D9F73EF49095809570957C
:1053A00061957F4F8F4F9F4F0895E89409C097FBF9
:1053B0003EF490958095709561957F4F8F4F9F4FEC
:1053C0009923A9F0F92F96E9BB279395F695879530
:1053D00077956795B795F111F8CFFAF4BB0F11F4F3
:1053E00060FF1BC06F5F7F4F8F4F9F4F16C088239A
:1053F00011F096E911C0772321F09EE8872F762FD0
:1054000005C0662371F096E8862F70E060E02AF010
:105410009A95660F771F881FDAF7880F96958795FC
:1054200097F9089557FD9058440F551F59F05F3F65
:1054300071F04795880F97FB991F61F09F3F79F0B6
:1054400087950895121613061406551FF2CF469538
:10545000F1DF08C0161617061806991FF1CF8695BA
:105460007105610508940895E894BB27662777279E
:10547000CB0197F908950E944E2A0C94BF2A0E94EE
:10548000B12A38F00E94B82A20F0952311F00C942C
:10549000A82A0C94AE2A11240C94352A0E94122AB0
:1054A00070F3959FC1F3950F50E0551F629FF00177
:1054B000729FBB27F00DB11D639FAA27F00DB11D90
:1054C000AA1F649F6627B00DA11D661F829F222719
:1054D000B00DA11D621F739FB00DA11D621F839FA0
:1054E000A00D611D221F749F3327A00D611D231F76
:1054F000849F600D211D822F762F6A2F11249F57C4
:1055000050409AF0F1F088234AF0EE0FFF1FBB1FC6
:10551000661F771F881F91505040A9F79E3F510585
:1055200080F00C94A82A0C94352A5F3FE4F3983E4F
:10553000D4F3869577956795B795F795E7959F5F2F
:10554000C1F7FE2B880F911D9695879597F90895C1
:1055500097F99F6780E870E060E008959FEF80EC26
:10556000089500240A9416161706180609060895C9
:1055700000240A9412161306140605060895092E2F
:105580000394000C11F4882352F0BB0F40F4BF2B9E
:1055900011F460FF04C06F5F7F4F8F4F9F4F0895DE
:1055A000991B79E004C0991F961708F0961B881F75
:1055B0007A95C9F78095089597FB072E16F4009405
:1055C00007D077FD09D00E94F62A07FC05D03EF4EB
:1055D000909581959F4F0895709561957F4F08959F
:1055E000EE0FFF1F0590F491E02D0994AA1BBB1B41
:1055F00051E107C0AA1FBB1FA617B70710F0A61BD3
:10560000B70B881F991F5A95A9F780959095BC01F3
:10561000CD010895F999FECF92BD81BDF89A9927E1
:1056200080B50895A8E1B0E042E050E00C942D2B45
:10563000262FF999FECF1FBA92BD81BD20BD0FB6AE
:10564000F894FA9AF99A0FBE019608950E94182BC1
:10565000272F0C94192BDC01CB01FC01F999FECF0B
:1056600006C0F2BDE1BDF89A319600B40D924150EA
:0A5670005040B8F70895F894FFCFFA
:10567A0005AD09A00A7B0A470A130A0101B50128E8
:10568A0008140A321E404D362239DD0590055A05A6
:10569A003805FF0472048B04A404BD04DD0401026E
:0856AA000304050607080900CE
:00000001FF
